{
  "contractName": "ticket_verifier",
  "abi": [
    {
      "constant": true,
      "inputs": [
        {
          "internalType": "bytes32",
          "name": "messageHash",
          "type": "bytes32"
        },
        {
          "internalType": "bytes",
          "name": "sig",
          "type": "bytes"
        }
      ],
      "name": "recoverSigner",
      "outputs": [
        {
          "internalType": "address",
          "name": "",
          "type": "address"
        }
      ],
      "payable": false,
      "stateMutability": "pure",
      "type": "function"
    }
  ],
  "bytecode": "0x608060405234801561001057600080fd5b5061022c806100206000396000f3fe608060405234801561001057600080fd5b506004361061002b5760003560e01c806397aba7f914610030575b600080fd5b6100f36004803603604081101561004657600080fd5b81019080803590602001909291908035906020019064010000000081111561006d57600080fd5b82018360208201111561007f57600080fd5b803590602001918460018302840111640100000000831117156100a157600080fd5b91908080601f016020809104026020016040519081016040528093929190818152602001838380828437600081840152601f19601f820116905080830192505050505050509192919290505050610135565b604051808273ffffffffffffffffffffffffffffffffffffffff1673ffffffffffffffffffffffffffffffffffffffff16815260200191505060405180910390f35b600080600080610144856101bc565b92509250925060018684848460405160008152602001604052604051808581526020018460ff1660ff1681526020018381526020018281526020019450505050506020604051602081039080840390855afa1580156101a7573d6000803e3d6000fd5b50505060206040510351935050505092915050565b600080600060418451146101cf57600080fd5b6020840151915060408401519050606084015160001a9250828282925092509250919390925056fea265627a7a7231582043dd0ad251d8fd57a140d2c56163f9c062432cdff6c733c283659b6c9af8cfc564736f6c63430005100032",
  "source": "//SPDX-License-Identifier: UNLICENSED\r\n//0.5.8 used while developing\r\npragma solidity >=0.4.21;\r\n\r\ncontract ticket_verifier{\r\n\r\n  function splitSignature(bytes memory sig) internal pure returns (uint8 v, bytes32 r, bytes32 s)\r\n  {\r\n    require(sig.length == 65);\r\n    assembly {\r\n        r := mload(add(sig, 32))\r\n        s := mload(add(sig, 64))\r\n        v := byte(0, mload(add(sig, 96)))\r\n    }\r\n    return (v, r, s);\r\n  }\r\n  \r\n  function prefixed(bytes32 hash) internal pure returns (bytes32) {\r\n    return keccak256(abi.encodePacked(\"\\x19Ethereum Signed Message:\\n32\", hash));\r\n  }\r\n\r\n  function recoverSigner(bytes32 messageHash, bytes memory sig) public pure returns (address)\r\n  {\r\n    (uint8 v, bytes32 r, bytes32 s) = splitSignature(sig);\r\n    \r\n    return ecrecover(messageHash , v, r, s);\r\n  }\r\n\r\n}\r\n",
  "sourcePath": "/Users/sean/Desktop/school/code/ureka-main/contracts/ticket_verifier.sol",
  "compiler": {
    "name": "solc",
    "version": "0.5.16+commit.9c3226ce.Emscripten.clang"
  },
  "schemaVersion": "3.4.4",
  "updatedAt": "2022-04-09T02:01:36.252Z",
  "devdoc": {
    "methods": {}
  },
  "userdoc": {
    "methods": {}
  }
}