{
  "contractName": "UREKA_sale",
  "abi": [
    {
      "inputs": [
        {
          "internalType": "string",
          "name": "_name",
          "type": "string"
        },
        {
          "internalType": "bytes",
          "name": "_device_id",
          "type": "bytes"
        }
      ],
      "payable": true,
      "stateMutability": "payable",
      "type": "constructor"
    },
    {
      "anonymous": false,
      "inputs": [
        {
          "indexed": false,
          "internalType": "address",
          "name": "sold_to",
          "type": "address"
        },
        {
          "indexed": false,
          "internalType": "bytes",
          "name": "sold_to_id",
          "type": "bytes"
        },
        {
          "indexed": false,
          "internalType": "uint256",
          "name": "sold_price",
          "type": "uint256"
        },
        {
          "indexed": false,
          "internalType": "bytes",
          "name": "device_id",
          "type": "bytes"
        }
      ],
      "name": "item_sold",
      "type": "event"
    },
    {
      "anonymous": false,
      "inputs": [
        {
          "indexed": false,
          "internalType": "uint256",
          "name": "upload_time",
          "type": "uint256"
        },
        {
          "indexed": false,
          "internalType": "string",
          "name": "rTicket",
          "type": "string"
        }
      ],
      "name": "rTicket_uploaded",
      "type": "event"
    },
    {
      "anonymous": false,
      "inputs": [
        {
          "indexed": false,
          "internalType": "uint256",
          "name": "retrive_time",
          "type": "uint256"
        }
      ],
      "name": "uTicket_retrived",
      "type": "event"
    },
    {
      "anonymous": false,
      "inputs": [
        {
          "indexed": false,
          "internalType": "uint256",
          "name": "upload_time",
          "type": "uint256"
        },
        {
          "indexed": false,
          "internalType": "string",
          "name": "uTicket",
          "type": "string"
        }
      ],
      "name": "uTicket_uploaded",
      "type": "event"
    },
    {
      "constant": false,
      "inputs": [
        {
          "internalType": "bytes",
          "name": "_user_id",
          "type": "bytes"
        }
      ],
      "name": "purchase",
      "outputs": [],
      "payable": true,
      "stateMutability": "payable",
      "type": "function"
    },
    {
      "constant": false,
      "inputs": [
        {
          "internalType": "string",
          "name": "ticket",
          "type": "string"
        }
      ],
      "name": "upload_uticket",
      "outputs": [],
      "payable": false,
      "stateMutability": "nonpayable",
      "type": "function"
    },
    {
      "constant": false,
      "inputs": [],
      "name": "retrive_uticket",
      "outputs": [],
      "payable": false,
      "stateMutability": "nonpayable",
      "type": "function"
    },
    {
      "constant": false,
      "inputs": [
        {
          "internalType": "string",
          "name": "ticket",
          "type": "string"
        }
      ],
      "name": "upload_rticket",
      "outputs": [],
      "payable": false,
      "stateMutability": "nonpayable",
      "type": "function"
    },
    {
      "constant": true,
      "inputs": [],
      "name": "read_listing",
      "outputs": [
        {
          "internalType": "string",
          "name": "_name",
          "type": "string"
        },
        {
          "internalType": "uint256",
          "name": "_BuyerAMT",
          "type": "uint256"
        },
        {
          "internalType": "uint256",
          "name": "_item_price",
          "type": "uint256"
        },
        {
          "internalType": "address",
          "name": "_Seller",
          "type": "address"
        },
        {
          "internalType": "address",
          "name": "_Buyer",
          "type": "address"
        },
        {
          "internalType": "bool",
          "name": "_sold",
          "type": "bool"
        },
        {
          "internalType": "bool",
          "name": "_sale_closed",
          "type": "bool"
        },
        {
          "internalType": "bytes",
          "name": "_device_id",
          "type": "bytes"
        },
        {
          "internalType": "bytes",
          "name": "_user_id",
          "type": "bytes"
        },
        {
          "internalType": "uint256",
          "name": "_session",
          "type": "uint256"
        }
      ],
      "payable": false,
      "stateMutability": "view",
      "type": "function"
    }
  ],
  "bytecode": "0x6080604052604051620013c6380380620013c6833981810160405260408110156200002957600080fd5b81019080805160405193929190846401000000008211156200004a57600080fd5b838201915060208201858111156200006157600080fd5b82518660018202830111640100000000821117156200007f57600080fd5b8083526020830192505050908051906020019080838360005b83811015620000b557808201518184015260208101905062000098565b50505050905090810190601f168015620000e35780820380516001836020036101000a031916815260200191505b50604052602001805160405193929190846401000000008211156200010757600080fd5b838201915060208201858111156200011e57600080fd5b82518660018202830111640100000000821117156200013c57600080fd5b8083526020830192505050908051906020019080838360005b838110156200017257808201518184015260208101905062000155565b50505050905090810190601f168015620001a05780820380516001836020036101000a031916815260200191505b5060405250505033600660006101000a81548173ffffffffffffffffffffffffffffffffffffffff021916908373ffffffffffffffffffffffffffffffffffffffff16021790555034600181905550600154600381905550600154600354016004819055506000600760146101000a81548160ff0219169083151502179055506000600760156101000a81548160ff02191690831515021790555043600b8190555042600c819055508160009080519060200190620002619291906200028b565b5080600a90805190602001906200027a92919062000312565b5060006005819055505050620003c1565b828054600181600116156101000203166002900490600052602060002090601f016020900481019282601f10620002ce57805160ff1916838001178555620002ff565b82800160010185558215620002ff579182015b82811115620002fe578251825591602001919060010190620002e1565b5b5090506200030e919062000399565b5090565b828054600181600116156101000203166002900490600052602060002090601f016020900481019282601f106200035557805160ff191683800117855562000386565b8280016001018555821562000386579182015b828111156200038557825182559160200191906001019062000368565b5b50905062000395919062000399565b5090565b620003be91905b80821115620003ba576000816000905550600101620003a0565b5090565b90565b610ff580620003d16000396000f3fe60806040526004361061004a5760003560e01c8063376425ca1461004f5780634baf8110146101175780634d1e1e661461012e5780635e94538d14610327578063ad5c613d146103ef575b600080fd5b34801561005b57600080fd5b506101156004803603602081101561007257600080fd5b810190808035906020019064010000000081111561008f57600080fd5b8201836020820111156100a157600080fd5b803590602001918460018302840111640100000000831117156100c357600080fd5b91908080601f016020809104026020016040519081016040528093929190818152602001838380828437600081840152601f19601f8201169050808301925050505050505091929192905050506104aa565b005b34801561012357600080fd5b5061012c610614565b005b34801561013a57600080fd5b50610143610710565b60405180806020018b81526020018a81526020018973ffffffffffffffffffffffffffffffffffffffff1673ffffffffffffffffffffffffffffffffffffffff1681526020018873ffffffffffffffffffffffffffffffffffffffff1673ffffffffffffffffffffffffffffffffffffffff1681526020018715151515815260200186151515158152602001806020018060200185815260200184810384528e818151815260200191508051906020019080838360005b838110156102155780820151818401526020810190506101fa565b50505050905090810190601f1680156102425780820380516001836020036101000a031916815260200191505b50848103835287818151815260200191508051906020019080838360005b8381101561027b578082015181840152602081019050610260565b50505050905090810190601f1680156102a85780820380516001836020036101000a031916815260200191505b50848103825286818151815260200191508051906020019080838360005b838110156102e15780820151818401526020810190506102c6565b50505050905090810190601f16801561030e5780820380516001836020036101000a031916815260200191505b509d505050505050505050505050505060405180910390f35b34801561033357600080fd5b506103ed6004803603602081101561034a57600080fd5b810190808035906020019064010000000081111561036757600080fd5b82018360208201111561037957600080fd5b8035906020019184600183028401116401000000008311171561039b57600080fd5b91908080601f016020809104026020016040519081016040528093929190818152602001838380828437600081840152601f19601f82011690508083019250505050505050919291929050505061098e565b005b6104a86004803603602081101561040557600080fd5b810190808035906020019064010000000081111561042257600080fd5b82018360208201111561043457600080fd5b8035906020019184600183028401116401000000008311171561045657600080fd5b91908080601f016020809104026020016040519081016040528093929190818152602001838380828437600081840152601f19601f820116905080830192505050505050509192919290505050610b1b565b005b600660009054906101000a900473ffffffffffffffffffffffffffffffffffffffff1673ffffffffffffffffffffffffffffffffffffffff163373ffffffffffffffffffffffffffffffffffffffff161461056d576040517f08c379a00000000000000000000000000000000000000000000000000000000081526004018080602001828103825260178152602001807f596f7520617265206e6f74207468652073656c6c65722e00000000000000000081525060200191505060405180910390fd5b7f0811097a47a143ac52e01896e7e5a10f233ab95b95dea26cd790844c6eaf04ef42826040518083815260200180602001828103825283818151815260200191508051906020019080838360005b838110156105d65780820151818401526020810190506105bb565b50505050905090810190601f1680156106035780820380516001836020036101000a031916815260200191505b50935050505060405180910390a150565b600760009054906101000a900473ffffffffffffffffffffffffffffffffffffffff1673ffffffffffffffffffffffffffffffffffffffff163373ffffffffffffffffffffffffffffffffffffffff16146106d7576040517f08c379a00000000000000000000000000000000000000000000000000000000081526004018080602001828103825260168152602001807f596f7520617265206e6f74207468652062757965722e0000000000000000000081525060200191505060405180910390fd5b7f35269ce44cd7fa4e9c4e0a61d9f6d94af5bb0e81cdd89697d6a0631577f6b6b9426040518082815260200191505060405180910390a1565b6060600080600080600080606080600080600454600354600660009054906101000a900473ffffffffffffffffffffffffffffffffffffffff16600760009054906101000a900473ffffffffffffffffffffffffffffffffffffffff16600760149054906101000a900460ff16600760159054906101000a900460ff16600a6009600554898054600181600116156101000203166002900480601f0160208091040260200160405190810160405280929190818152602001828054600181600116156101000203166002900480156108295780601f106107fe57610100808354040283529160200191610829565b820191906000526020600020905b81548152906001019060200180831161080c57829003601f168201915b50505050509950869650859550828054600181600116156101000203166002900480601f0160208091040260200160405190810160405280929190818152602001828054600181600116156101000203166002900480156108cb5780601f106108a0576101008083540402835291602001916108cb565b820191906000526020600020905b8154815290600101906020018083116108ae57829003601f168201915b50505050509250818054600181600116156101000203166002900480601f0160208091040260200160405190810160405280929190818152602001828054600181600116156101000203166002900480156109675780601f1061093c57610100808354040283529160200191610967565b820191906000526020600020905b81548152906001019060200180831161094a57829003601f168201915b50505050509150995099509950995099509950995099509950995090919293949596979899565b600760009054906101000a900473ffffffffffffffffffffffffffffffffffffffff1673ffffffffffffffffffffffffffffffffffffffff163373ffffffffffffffffffffffffffffffffffffffff1614610a51576040517f08c379a00000000000000000000000000000000000000000000000000000000081526004018080602001828103825260168152602001807f596f7520617265206e6f74207468652062757965722e0000000000000000000081525060200191505060405180910390fd5b6000600760146101000a81548160ff0219169083151502179055507f12e8dbb6c0daae71d0cc5b390fda89946cdb36841e601af7b2218a72f8f483dd42826040518083815260200180602001828103825283818151815260200191508051906020019080838360005b83811015610ad5578082015181840152602081019050610aba565b50505050905090810190601f168015610b025780820380516001836020036101000a031916815260200191505b50935050505060405180910390a1610b18610e24565b50565b60001515600760149054906101000a900460ff16151514610ba4576040517f08c379a00000000000000000000000000000000000000000000000000000000081526004018080602001828103825260188152602001807f54686973206974656d20686173206265656e20736f6c642e000000000000000081525060200191505060405180910390fd5b6004543414610c1b576040517f08c379a000000000000000000000000000000000000000000000000000000000815260040180806020018281038252601b8152602001807f57726f6e6720707572636861736520616d6f756e742073656e742e000000000081525060200191505060405180910390fd5b33600760006101000a81548173ffffffffffffffffffffffffffffffffffffffff021916908373ffffffffffffffffffffffffffffffffffffffff1602179055508060099080519060200190610c72929190610f1b565b506001546002819055507f2b7337d8887d7e02b0d00cd2e610db65d2425558794b103be7c3b733df656c59600760009054906101000a900473ffffffffffffffffffffffffffffffffffffffff166009600454600a604051808573ffffffffffffffffffffffffffffffffffffffff1673ffffffffffffffffffffffffffffffffffffffff1681526020018060200184815260200180602001838103835286818154600181600116156101000203166002900481526020019150805460018160011615610100020316600290048015610d8c5780601f10610d6157610100808354040283529160200191610d8c565b820191906000526020600020905b815481529060010190602001808311610d6f57829003601f168201915b5050838103825284818154600181600116156101000203166002900481526020019150805460018160011615610100020316600290048015610e0f5780601f10610de457610100808354040283529160200191610e0f565b820191906000526020600020905b815481529060010190602001808311610df257829003601f168201915b5050965050505050505060405180910390a150565b600660009054906101000a900473ffffffffffffffffffffffffffffffffffffffff1673ffffffffffffffffffffffffffffffffffffffff166108fc600354600154019081150290604051600060405180830381858888f19350505050158015610e92573d6000803e3d6000fd5b50600760009054906101000a900473ffffffffffffffffffffffffffffffffffffffff1673ffffffffffffffffffffffffffffffffffffffff166108fc6002549081150290604051600060405180830381858888f19350505050158015610efd573d6000803e3d6000fd5b506001600760156101000a81548160ff021916908315150217905550565b828054600181600116156101000203166002900490600052602060002090601f016020900481019282601f10610f5c57805160ff1916838001178555610f8a565b82800160010185558215610f8a579182015b82811115610f89578251825591602001919060010190610f6e565b5b509050610f979190610f9b565b5090565b610fbd91905b80821115610fb9576000816000905550600101610fa1565b5090565b9056fea265627a7a72315820bbab332c3dd7dc536a78f5b6484a9a64cca2662f891ef8287026168e293fc72064736f6c63430005100032",
  "source": "//SPDX-License-Identifier: UNLICENSED\r\n//0.5.8 used while developing\r\npragma solidity >=0.4.21 <0.6.0;\r\n\r\ncontract UREKA_sale {\r\n    string name;\r\n    uint256 SellerDeposit;\r\n    uint256 BuyerDeposit;\r\n    uint256 item_price;\r\n    uint256 BuyerAMT;\r\n    uint256 session;\r\n\r\n    address payable Seller;\r\n    address payable Buyer;\r\n\r\n    bool sold;\r\n    bool sale_closed;\r\n\r\n    bytes owner_id;\r\n    bytes user_id;\r\n    bytes device_id;\r\n\r\n    //仲裁用時間紀錄\r\n    uint256 created_block;\r\n    uint256 created_time;\r\n\r\n    event item_sold(\r\n        address sold_to,\r\n        bytes sold_to_id,\r\n        uint256 sold_price,\r\n        bytes device_id\r\n    );\r\n    event uTicket_uploaded(uint256 upload_time, string uTicket);\r\n    event uTicket_retrived(uint256 retrive_time);\r\n    event rTicket_uploaded(uint256 upload_time, string rTicket);\r\n\r\n    constructor(string memory _name, bytes memory _device_id) public payable {\r\n        //TODO:constructor帶owner_id, bytes_id進來，記得順便改read_listing()\r\n\r\n        Seller = msg.sender;\r\n        SellerDeposit = msg.value;\r\n        item_price = SellerDeposit;\r\n        BuyerAMT = item_price + SellerDeposit;\r\n        sold = false;\r\n        sale_closed = false;\r\n        created_block = block.number;\r\n        created_time = block.timestamp; //epoch , good \"enough\"\r\n        name = _name;\r\n        device_id = _device_id;\r\n        session = 0;\r\n    }\r\n\r\n    function purchase(bytes memory _user_id) public payable {\r\n        //check if buying conditions are made\r\n        require(sold == false, \"This item has been sold.\");\r\n        require(msg.value == BuyerAMT, \"Wrong purchase amount sent.\");\r\n\r\n        //Buying\r\n        Buyer = msg.sender;\r\n        user_id = _user_id;\r\n        BuyerDeposit = SellerDeposit;\r\n        // sold = true;\r\n\r\n        emit item_sold(Buyer, user_id, BuyerAMT, device_id); //let oracle catch this event and prompt seller to upload ticket\r\n    }\r\n\r\n    function upload_uticket(string memory ticket) public {\r\n        //要把票當參數直接叫進來?\r\n        //FIDO直接對user發票?\r\n        require(msg.sender == Seller, \"You are not the seller.\");\r\n        // require(sold, \"Item not sold yet.\");\r\n\r\n        // sold = true;\r\n        //TODO:process uTicket\r\n\r\n        //prompt buyer to retrive uTicket, put actual ticket in event to save storage\r\n        //compromise to NOT store uticket in contract root\r\n        emit uTicket_uploaded(block.timestamp, ticket);\r\n    }\r\n\r\n    function retrive_uticket() public {\r\n        require(msg.sender == Buyer, \"You are not the buyer.\");\r\n        emit uTicket_retrived(block.timestamp);\r\n    }\r\n\r\n    function upload_rticket(string memory ticket) public {\r\n        require(msg.sender == Buyer, \"You are not the buyer.\");\r\n\r\n        sold = false;\r\n        //validate rTicket\r\n\r\n        emit rTicket_uploaded(block.timestamp, ticket); //only for debugging\r\n        close_sale();\r\n    }\r\n\r\n    function close_sale() private {\r\n        //TODO: use better transfer pattern\r\n\r\n        Seller.transfer(SellerDeposit + item_price);\r\n        Buyer.transfer(BuyerDeposit);\r\n\r\n        sale_closed = true;\r\n    }\r\n\r\n    function read_listing()\r\n        public\r\n        view\r\n        returns (\r\n            string memory _name,\r\n            uint256 _BuyerAMT,\r\n            uint256 _item_price,\r\n            address _Seller,\r\n            address _Buyer,\r\n            bool _sold,\r\n            bool _sale_closed,\r\n            bytes memory _device_id,\r\n            bytes memory _user_id,\r\n            uint256 _session\r\n        )\r\n    {\r\n        return (\r\n            name,\r\n            BuyerAMT,\r\n            item_price,\r\n            Seller,\r\n            Buyer,\r\n            sold,\r\n            sale_closed,\r\n            device_id,\r\n            user_id,\r\n            session\r\n        );\r\n    }\r\n\r\n    //仲裁\r\n    //Timeout\r\n    //add default receive and fallback behavior\r\n}\r\n",
  "sourcePath": "/Users/sean/Desktop/school/code/ureka-main/contracts/ureka.sol",
  "compiler": {
    "name": "solc",
    "version": "0.5.16+commit.9c3226ce.Emscripten.clang"
  },
  "schemaVersion": "3.4.4",
  "updatedAt": "2022-04-29T07:40:49.827Z",
  "devdoc": {
    "methods": {}
  },
  "userdoc": {
    "methods": {}
  }
}